:100000000C942A000C9447000C9447000C94470071
:100010000C9447000C9447000C9447000C94470044
:100020000C9447000C9447000C9402060C94470073
:100030000C9447000C9447000C9447000C94470024
:100040000C9447000C9447000C9447000C94470014
:100050000C94470011241FBECFE5D8E0DEBFCDBF12
:1000600010E0A0E6B0E0ECE2F1E202C005900D92F3
:10007000AA3CB107D9F710E0AAECB0E001C01D928C
:10008000AC3CB107E1F70E94190E0C9494100C944B
:100090000000EF92FF920F931F937B018C0120E0F1
:1000A00030E040E05FE40E94490388238CF0C801FF
:1000B000B70120E030E040E05FE40E94C1010E940F
:1000C000A9039B01AC01205030404040504806C07D
:1000D000C801B7010E94A9039B01AC01B901CA0183
:1000E0001F910F91FF90EF900895A0E0B0E0EBE733
:1000F000F0E00C945D10DC012B01FA019C91923030
:1001000008F439C1EB018881823008F433C194309E
:1001100069F4843009F02FC111969C91119789815F
:10012000981709F428C1ABEAB0E025C1843009F47E
:1001300021C18230A9F4923009F01DC19A01AD01AC
:1001400088E0EA010990AE01E90109929E0181501F
:10015000C1F7E201898111969C918923818308C1AD
:10016000923009F407C112962D903C901397EB0141
:100170008A819B811496AD90BD90CD90DC901797AD
:10018000EC80FD800E811F819101281B390BB90184
:1001900037FF04C066277727621B730B6032710537
:1001A0000CF061C0121613066CF537014801062EDB
:1001B00004C096948794779467940A94D2F721E0C8
:1001C00030E040E050E004C0220F331F441F551FB1
:1001D0006A95D2F721503040404050402E213F21B7
:1001E00040235123211531054105510521F021E01E
:1001F00030E040E050E079018A01E628F72808293C
:1002000019293CC0232BD1F1260E371E350146019A
:10021000062E04C096948794779467940A94D2F734
:1002200021E030E040E050E004C0220F331F441FC3
:10023000551F6A95D2F721503040404050402A2146
:100240003B214C215D21211531054105510521F04E
:1002500021E030E040E050E059016A01A628B728CB
:10026000C828D9280BC0821593052CF01C01AA249C
:10027000BB24650103C0EE24FF24870111969C91E5
:10028000D20111968C91981709F445C0992339F041
:10029000A80197012A193B094C095D0906C0A6016E
:1002A00095012E193F09400B510B57FD08C01182D3
:1002B0003382228224833583468357831DC081E0A5
:1002C00081833382228288279927DC01821B930B4A
:1002D000A40BB50B84839583A683B7830DC0220F2F
:1002E000331F441F551F24833583468357838281E0
:1002F000938101979383828324813581468157813D
:10030000DA01C9010197A109B1098F5F9F4FAF4F72
:10031000BF4328F30BC0918333822282EA0CFB1C7B
:100320000C1D1D1DE482F5820683178383E0808304
:10033000248135814681578157FF1AC0C901AA27F8
:1003400097FDA095BA2F81709070A070B0705695EF
:10035000479537952795822B932BA42BB52B848318
:100360009583A683B7838281938101969383828349
:10037000DF0101C0D201CD01CDB7DEB7E2E10C94BF
:100380007910A0E2B0E0E7ECF1E00C946910698329
:100390007A838B839C832D833E834F835887E9E048
:1003A000EE2EF12CEC0EFD1ECE010196B7010E943F
:1003B000D2048E010F5E1F4FCE010596B8010E9438
:1003C000D2048A8991E089278A8BC701B801AE01DE
:1003D000475E5F4F0E9475000E94FD03A096E6E015
:1003E0000C948510A0E2B0E0E8EFF1E00C94691005
:1003F00069837A838B839C832D833E834F835887C5
:10040000F9E0EF2EF12CEC0EFD1ECE010196B701A6
:100410000E94D2048E010F5E1F4FCE010596B801D7
:100420000E94D204C701B801AE01475E5F4F0E942F
:1004300075000E94FD03A096E6E00C948510A0E2F2
:10044000B0E0E5E2F2E00C945D1069837A838B837F
:100450009C832D833E834F835887CE010196BE0136
:10046000675F7F4F0E94D204CE010596BE016F5E8A
:100470007F4F0E94D2049985923088F0898982301A
:10048000C8F0943019F4823051F404C0843029F457
:10049000923081F48BEA90E0C6C0923049F420E0BB
:1004A0009A858A89981321E02A87CE010996BBC0D4
:1004B000823049F420E09A858A89981321E02A8BBA
:1004C000CE014196B0C02D843E844F8458886D88FB
:1004D0007E888F88988CEE24FF248701AA24BB2471
:1004E000650140E050E060E070E0E0E0F0E0C10174
:1004F00081709070892BE9F0E60CF71C081D191D1E
:100500009A01AB012A0D3B1D4C1D5D1D80E090E062
:10051000A0E0B0E0E614F7040805190520F481E036
:1005200090E0A0E0B0E0BA01A901480F591F6A1F8E
:100530007B1FAA0CBB1CCC1CDD1C97FE08C081E0F5
:1005400090E0A0E0B0E0A82AB92ACA2ADB2A3196B6
:10055000E032F10549F0660C771C881C991C569412
:10056000479437942794C3CFFA85EA892B893C892D
:100570008B859C85280F391F2E5F3F4F17C0CA01FE
:1005800081709070892B61F016950795F794E79428
:1005900080E090E0A0E0B0E8E82AF92A0A2B1B2BC3
:1005A00076956795579547952F5F3F4F77FDE7CF36
:1005B0000CC0440F551F661F771F17FD4160EE0CDE
:1005C000FF1C001F111F21503040403090E05907A0
:1005D00090E0690790E4790760F32B8F3C8FDB0193
:1005E000CA018F779070A070B07080349105A1051A
:1005F000B10561F447FD0AC0E114F10401051105DC
:1006000029F0405C5F4F6F4F7F4F40781A8EFE1786
:1006100011F081E08A8F4D8F5E8F6F8F78A383E01A
:10062000898FCE0149960E94FD03A096E2E10C94C9
:100630007910A8E1B0E0EFE1F3E00C946910698370
:100640007A838B839C832D833E834F83588789E0F5
:10065000E82EF12CEC0EFD1ECE010196B7010E9492
:10066000D2048E010F5E1F4FCE010596B8010E9485
:10067000D2048985823040F08989823028F0C70110
:10068000B8010E944A0501C08FEF6896E6E00C941D
:100690008510A8E1B0E0EFE4F3E00C946910698301
:1006A0007A838B839C832D833E834F83588789E095
:1006B000E82EF12CEC0EFD1ECE010196B7010E9432
:1006C000D2048E010F5E1F4FCE010596B8010E9425
:1006D000D2048985823040F08989823028F0C701B0
:1006E000B8010E944A0501C08FEF6896E6E00C94BD
:1006F0008510A8E1B0E0EFE7F3E00C94691069839E
:100700007A838B839C832D833E834F83588789E034
:10071000E82EF12CEC0EFD1ECE010196B7010E94D1
:10072000D2048E010F5E1F4FCE010596B8010E94C4
:10073000D2048985823040F08989823028F0C7014F
:10074000B8010E944A0501C081E06896E6E00C9479
:100750008510ACE0B0E0EFEAF3E00C946D10698333
:100760007A838B839C83CE010196BE016B5F7F4FA2
:100770000E94D2048D81823061F1823050F1843048
:1007800021F48E81882351F12EC02F81388537FDC9
:1007900020C06E812F3131051CF06623F9F023C093
:1007A0008EE190E0821B930B29853A854B855C8511
:1007B00004C056954795379527958A95D2F76623B5
:1007C000B1F050954095309521953F4F4F4F5F4F79
:1007D0000EC020E030E040E050E009C02FEF3FEFD6
:1007E0004FEF5FE704C020E030E040E050E8B9019F
:1007F000CA012C96E2E00C948910DF92EF92FF92EE
:100800000F931F93FC01E480F58006811781D1804E
:100810008081823048F480E090E0A0E1B0E0E82AF6
:10082000F92A0A2B1B2BA5C0843009F49FC0823003
:1008300021F4EE24FF24870105C0E114F104010531
:10084000110519F4E0E0F0E096C0628173819FEF3A
:10085000623879070CF05BC022E83FEF261B370BAC
:100860002A3131052CF020E030E040E050E02AC091
:10087000B801A701022E04C0769567955795479554
:100880000A94D2F781E090E0A0E0B0E004C0880FC5
:10089000991FAA1FBB1F2A95D2F70197A109B10979
:1008A0008E219F21A023B1230097A105B10521F03E
:1008B00081E090E0A0E0B0E09A01AB01282B392B59
:1008C0004A2B5B2BDA01C9018F779070A070B07052
:1008D00080349105A105B10539F427FF09C0205CDA
:1008E0003F4F4F4F5F4F04C0215C3F4F4F4F5F4F13
:1008F000E0E0F0E02030A0E03A07A0E04A07A0E402
:100900005A0710F0E1E0F0E079018A0127C0603871
:10091000710564F5FB01E158FF4FD801C7018F77DE
:100920009070A070B07080349105A105B10539F4C4
:10093000E7FE0DC080E490E0A0E0B0E004C08FE3EB
:1009400090E0A0E0B0E0E80EF91E0A1F1B1F17FFA1
:1009500005C016950795F794E794319687E01695AC
:100960000795F794E7948A95D1F705C0EE24FF2404
:100970008701EFEFF0E06E2F679566276795902F60
:100980009F77D794DD24D7948E2F8695492F462BB9
:10099000582F5D29B701CA011F910F91FF90EF9069
:1009A000DF900895FC01DB01408151812281622F9B
:1009B0006F7770E0221F2227221F9381892F880FD3
:1009C000822B282F30E0991F9927991F11969C930D
:1009D000119721153105A9F54115510561057105DD
:1009E00011F482E037C082E89FEF13969C938E93B8
:1009F00012979A01AB0167E0220F331F441F551F66
:100A00006A95D1F783E08C930DC0220F331F441FEA
:100A1000551F12968D919C911397019713969C9355
:100A20008E931297203080E0380780E0480780E4FA
:100A3000580758F314962D933D934D935C93179755
:100A400008952F3F310579F4411551056105710570
:100A500019F484E08C93089564FF03C081E08C93C3
:100A600012C01C9210C02F57304013963C932E9307
:100A7000129783E08C9387E0440F551F661F771F02
:100A80008A95D1F7706414964D935D936D937C9322
:100A9000179708951F93DC01FB019C91923008F495
:100AA00047C08081823008F443C0943051F41196DD
:100AB0001C91843099F58181682F70E0611B710968
:100AC0003FC0843021F0923031F48230B9F181811D
:100AD000882389F12DC011961C9111978230F1F075
:100AE00081811817D9F412962D913C911397828128
:100AF00093818217930794F028173907BCF0149656
:100B00008D919D910D90BC91A02D248135814681C0
:100B10005781281739074A075B0718F4112341F05A
:100B20000AC082179307A407B50740F4112319F0F0
:100B300061E070E005C06FEF7FEF02C060E070E041
:100B4000CB011F910895DF93CF93CDB7DEB7A3E517
:100B5000B0E0E3E5F0E080818F7B8C93A3E5B0E02B
:100B6000E3E5F0E0808188608C93A3E5B0E0E3E505
:100B7000F0E080818E7F8C93A3E5B0E0E3E5F0E0C8
:100B8000808182608C93A3E5B0E0E3E5F0E08081B2
:100B90008B7F8C93A9E5B0E0E9E5F0E0808182608D
:100BA0008C93CF91DF910895DF93CF930F92CDB7C0
:100BB000DEB78983E2E5F0E0898180830F90CF91F1
:100BC000DF910895DF93CF930F92CDB7DEB789837E
:100BD000ECE5F0E0898180830F90CF91DF9108955B
:100BE000DF93CF9300D0CDB7DEB79A838983898115
:100BF0009A819093CB008093CA000F900F90CF9171
:100C0000DF9108951F920F920FB60F9211242F9328
:100C10003F934F935F936F937F938F939F93AF9384
:100C2000BF93EF93FF93DF93CF93CDB7DEB7809160
:100C3000CA009091CB00009729F0E091CA00F09192
:100C4000CB000995CF91DF91FF91EF91BF91AF91CB
:100C50009F918F917F916F915F914F913F912F91D4
:100C60000F900FBE0F901F901895DF93CF9300D079
:100C700000D00F92CDB7DEB789836A834B83898119
:100C8000282F30E03D832C838C819D81813091051C
:100C900009F443C02C813D81223031052CF48C8134
:100CA0009D81009771F0BCC02C813D8122303105BF
:100CB00009F45FC08C819D818330910509F485C062
:100CC000AFC08B818823A9F4AAE3B0E0EAE3F0E0A7
:100CD0008081482F8A81282F30E081E090E0022E29
:100CE00002C0880F991F0A94E2F7809584238C93A1
:100CF00097C0AAE3B0E0EAE3F0E08081482F8A8160
:100D0000282F30E081E090E0022E02C0880F991F6A
:100D10000A94E2F7842B8C9383C08B818823A9F4F7
:100D2000A7E3B0E0E7E3F0E08081482F8A81282F35
:100D300030E081E090E0022E02C0880F991F0A94F3
:100D4000E2F7809584238C936BC0A7E3B0E0E7E3E0
:100D5000F0E08081482F8A81282F30E081E090E008
:100D6000022E02C0880F991F0A94E2F7842B8C93FD
:100D700057C08B818823A9F4A4E3B0E0E4E3F0E05A
:100D80008081482F8A81282F30E081E090E0022E78
:100D900002C0880F991F0A94E2F7809584238C93F0
:100DA0003FC0A4E3B0E0E4E3F0E08081482F8A8113
:100DB000282F30E081E090E0022E02C0880F991FBA
:100DC0000A94E2F7842B8C932BC08B818823A9F49F
:100DD000A1E3B0E0E1E3F0E08081482F8A81282F91
:100DE00030E081E090E0022E02C0880F991F0A9443
:100DF000E2F7809584238C9313C0A1E3B0E0E1E394
:100E0000F0E08081482F8A81282F30E081E090E057
:100E1000022E02C0880F991F0A94E2F7842B8C934C
:100E20000F900F900F900F900F90CF91DF9108953A
:100E3000DF93CF9300D000D00F92CDB7DEB7898378
:100E40006A834B838981282F30E03D832C838C81FA
:100E50009D818130910509F443C02C813D81223070
:100E600031052CF48C819D81009771F0BCC02C81E0
:100E70003D812230310509F45FC08C819D81833032
:100E8000910509F485C0AFC08B818130A1F4ABE33B
:100E9000B0E0EBE3F0E08081482F8A81282F30E03A
:100EA00081E090E0022E02C0880F991F0A94E2F7B9
:100EB000842B8C9398C0ABE3B0E0EBE3F0E080814F
:100EC000482F8A81282F30E081E090E0022E02C076
:100ED000880F991F0A94E2F7809584238C9383C02E
:100EE0008B818130A1F4A8E3B0E0E8E3F0E08081F9
:100EF000482F8A81282F30E081E090E0022E02C046
:100F0000880F991F0A94E2F7842B8C936CC0A8E396
:100F1000B0E0E8E3F0E08081482F8A81282F30E0BC
:100F200081E090E0022E02C0880F991F0A94E2F738
:100F3000809584238C9357C08B818130A1F4A5E3E5
:100F4000B0E0E5E3F0E08081482F8A81282F30E08F
:100F500081E090E0022E02C0880F991F0A94E2F708
:100F6000842B8C9340C0A5E3B0E0E5E3F0E0808102
:100F7000482F8A81282F30E081E090E0022E02C0C5
:100F8000880F991F0A94E2F7809584238C932BC0D5
:100F90008B818130A1F4A2E3B0E0E2E3F0E0808154
:100FA000482F8A81282F30E081E090E0022E02C095
:100FB000880F991F0A94E2F7842B8C9314C0A2E344
:100FC000B0E0E2E3F0E08081482F8A81282F30E012
:100FD00081E090E0022E02C0880F991F0A94E2F788
:100FE000809584238C930F900F900F900F900F900B
:100FF000CF91DF910895DF93CF9300D000D0CDB78C
:10100000DEB789836A838981282F30E03C832B8374
:101010008B819C818130910521F12B813C81223093
:1010200031052CF48B819C81009761F046C02B81A7
:101030003C812230310521F18B819C8183309105E7
:1010400071F13BC08A81813029F4EAE3F0E08FEF4F
:10105000808333C08A81882381F5EAE3F0E010823F
:101060002CC08A81813029F4E7E3F0E08FEF8083A0
:1010700024C08A81882309F5E7E3F0E010821DC0CF
:101080008A81813029F4E4E3F0E08FEF808315C09A
:101090008A81882391F4E4E3F0E010820EC08A8113
:1010A000813029F4E1E3F0E08FEF808306C08A818C
:1010B000882319F4E1E3F0E010820F900F900F9075
:1010C0000F90CF91DF910895DF93CF9300D000D0A0
:1010D000CDB7DEB789836A838981282F30E03C83CE
:1010E0002B838B819C8181309105D1F02B813C81B8
:1010F000223031052CF48B819C81009761F01EC059
:101100002B813C812230310581F08B819C818330A1
:10111000910581F013C0EBE3F0E08A8180830EC07B
:10112000E8E3F0E08A81808309C0E5E3F0E08A81AA
:10113000808304C0E2E3F0E08A8180830F900F9007
:101140000F900F90CF91DF910895DF93CF9300D050
:1011500000D00F92CDB7DEB78A836B838A81282FA8
:1011600030E03D832C834C815D814130510541F15C
:101170008C819D818230910534F42C813D81211533
:10118000310561F052C04C815D814230510551F111
:101190008C819D8183309105B9F147C0E9E3F0E08E
:1011A0008081282F30E08B81882F90E0A90102C038
:1011B000559547958A95E2F7CA018170898335C0B4
:1011C000E6E3F0E08081282F30E08B81882F90E0EB
:1011D000A90102C0559547958A95E2F7CA01817029
:1011E000898323C0E3E3F0E08081282F30E08B8106
:1011F000882F90E0A90102C0559547958A95E2F79E
:10120000CA018170898311C0E0E3F0E08081282F5A
:1012100030E08B81882F90E0A90102C05595479559
:101220008A95E2F7CA018170898389810F900F90B6
:101230000F900F900F90CF91DF910895DF93CF9390
:10124000CDB7DEB72F970FB6F894DEBF0FBECDBF78
:101250008F8780E060E040E00E94180780E061E056
:1012600040E00E94180781E06F850E94640880E0DA
:1012700062E041E00E94180780E090E0A0E0B0E466
:101280008B879C87AD87BE876B857C858D859E858A
:1012900020E030E04AEF54E40E941F02DC01CB0161
:1012A0008F839887A987BA876F81788589859A8582
:1012B00020E030E040E85FE30E94790388232CF4CB
:1012C00081E090E09E838D833FC06F817885898522
:1012D0009A8520E03FEF4FE757E40E941903181664
:1012E0004CF56B857C858D859E8520E030E040E265
:1012F00051E40E941F02DC01CB01BC01CD010E9420
:101300004900DC01CB019E838D830FC088EC90E007
:101310009C838B838B819C810197F1F79C838B83CA
:101320008D819E8101979E838D838D819E81009703
:1013300069F714C06F81788589859A850E94490074
:10134000DC01CB019E838D838D819E819A8389836D
:1013500089819A810197F1F79A83898380E062E01D
:1013600040E00E9418072F960FB6F894DEBF0FBE1C
:10137000CDBFCF91DF910895DF93CF93CDB7DEB787
:1013800081E00E941E09CF91DF910895DF93CF93F2
:10139000CDB7DEB72F970FB6F894DEBF0FBECDBF27
:1013A0008F8780E060E041E00E94180780E061E004
:1013B00040E00E94180781E06F850E94640880E089
:1013C00062E041E00E94180780E090E0A0E0B0E415
:1013D0008B879C87AD87BE876B857C858D859E8539
:1013E00020E030E04AEF54E40E941F02DC01CB0110
:1013F0008F839887A987BA876F81788589859A8531
:1014000020E030E040E85FE30E94790388232CF479
:1014100081E090E09E838D833FC06F8178858985D0
:101420009A8520E03FEF4FE757E40E941903181612
:101430004CF56B857C858D859E8520E030E040E213
:1014400051E40E941F02DC01CB01BC01CD010E94CE
:101450004900DC01CB019E838D830FC088EC90E0B6
:101460009C838B838B819C810197F1F79C838B8379
:101470008D819E8101979E838D838D819E810097B2
:1014800069F714C06F81788589859A850E94490023
:10149000DC01CB019E838D838D819E819A8389831C
:1014A00089819A810197F1F79A83898380E062E0CC
:1014B00040E00E9418072F960FB6F894DEBF0FBECB
:1014C000CDBFCF91DF910895DF93CF93CDB7DEB736
:1014D0002E970FB6F894DEBF0FBECDBF81E061E05E
:1014E0000E94FB0780E060E041E00E94350680E05A
:1014F00061E041E00E94350680E062E041E00E9448
:10150000350680E090E0A0E2B2E48B879C87AD874F
:10151000BE876B857C858D859E8520E030E04AEF17
:1015200054E40E941F02DC01CB018F839887A987B6
:10153000BA876F81788589859A8520E030E040E818
:101540005FE30E94790388232CF481E090E09E837E
:101550008D833FC06F81788589859A8520E03FEF34
:101560004FE757E40E94190318164CF56B857C85EC
:101570008D859E8520E030E040E251E40E941F020C
:10158000DC01CB01BC01CD010E944900DC01CB0193
:101590009E838D830FC088EC90E09C838B838B812E
:1015A0009C810197F1F79C838B838D819E810197AC
:1015B0009E838D838D819E81009769F714C06F8112
:1015C000788589859A850E944900DC01CB019E833C
:1015D0008D838D819E819A83898389819A810197E8
:1015E000F1F79A83898388E30E941E098FE00E94A5
:1015F0001E0981E00E941E092E960FB6F894DEBFE8
:101600000FBECDBFCF91DF910895DF93CF9300D070
:101610000F92CDB7DEB78A836B8319828A818823C4
:1016200019F48B81898306C08A81813019F48B81FA
:10163000805C898389818068898389810E941E09F1
:101640000F900F900F90CF91DF910895DF93CF937C
:1016500000D00F92CDB7DEB79B838A8319820EC06C
:101660008981282F30E08A819B81FC01E20FF31FE2
:1016700080810E94C60989818F5F89838981282F93
:1016800030E08A819B81FC01E20FF31F8081882377
:1016900039F70F900F900F90CF91DF910895DF935E
:1016A000CF93CDB7DEB727970FB6F894DEBF0FBE46
:1016B000CDBF9C838B836D834E832F838D81882F39
:1016C00090E0880F991F880F991F880F991F8983B1
:1016D00089818064898389810E941E091A820EC0D3
:1016E0008A81282F30E08B819C81FC01E20FF31F5F
:1016F00080810E94C6098A818F5F8A838A818830AF
:1017000078F38E816F810E94050B8D810E94C6093E
:1017100027960FB6F894DEBF0FBECDBFCF91DF91F5
:101720000895DF93CF93CDB7DEB782E060E040E06D
:101730000E94350682E061E040E00E94350682E0CA
:1017400062E040E00E94350682E063E040E00E94F3
:10175000350682E060E041E00E94180782E061E027
:1017600041E00E94180782E062E041E00E94180711
:1017700082E063E041E00E94180782E064E041E01B
:101780000E94350682E065E041E00E94350682E075
:1017900066E041E00E94350682E064E041E00E949C
:1017A000180782E065E041E00E94180782E066E0E9
:1017B00041E00E941807CF91DF910895DF93CF9306
:1017C00000D000D00F92CDB7DEB78FEF8A831C8296
:1017D00057C08C81882F90E0FC01E954FF4F908125
:1017E00082E0692F40E00E9418071B8237C08B817E
:1017F000882F90E0FC01ED54FF4F908182E0692F2B
:101800000E94A50889838981882329F58B81282F47
:1018100030E08C81482F50E0C901880F991F820F5A
:10182000931F840F951FFC01E654FF4F80818A832C
:101830000CC08B81882F90E0FC01ED54FF4F90810C
:1018400082E0692F0E94A50889838981882389F312
:101850008A818D831BC08B818F5F8B838B818430CA
:1018600030F28C81882F90E0FC01E954FF4F908189
:1018700082E0692F41E00E9418078C818F5F8C8382
:101880008C81833008F4A5CF8A818D838D810F9060
:101890000F900F900F900F90CF91DF910895DF93ED
:1018A000CF93CDB7DEB781E0CF91DF910895DF937D
:1018B000CF930F92CDB7DEB70F90CF91DF91089500
:1018C000DF93CF93CDB7DEB780E063E040E00E94C6
:1018D000180780E064E040E00E941807CF91DF9194
:1018E0000895DF93CF93CDB7DEB76C970FB6F8941A
:1018F000DEBF0FBECDBF80E063E041E00E9418076D
:1019000080E064E040E00E94180780E067E041E08A
:101910000E94180780E065E041E00E94180780E01F
:1019200090E0A8ECB2E4898F9A8FAB8FBC8F698D61
:101930007A8D8B8D9C8D20E030E04AEF54E40E943C
:101940001F02DC01CB018D8B9E8BAF8BB88F6D8915
:101950007E898F89988D20E030E040E85FE30E9427
:10196000790388232CF481E090E09C8B8B8B3FC023
:101970006D897E898F89988D20E03FEF4FE757E48E
:101980000E94190318164CF5698D7A8D8B8D9C8DEC
:1019900020E030E040E251E40E941F02DC01CB0174
:1019A000BC01CD010E944900DC01CB019C8B8B8BDB
:1019B0000FC088EC90E09A8B898B89899A8901976E
:1019C000F1F79A8B898B8B899C8901979C8B8B8BE8
:1019D0008B899C89009769F714C06D897E898F89EE
:1019E000988D0E944900DC01CB019C8B8B8B8B89ED
:1019F0009C89988B8F878F8598890197F1F7988BB1
:101A00008F8780E065E040E00E94180780E090E862
:101A1000ADEEB4E48B879C87AD87BE876B857C85F4
:101A20008D859E8520E030E04AEF54E40E941F023D
:101A3000DC01CB018F839887A987BA876F8178856E
:101A400089859A8520E030E040E85FE30E947903D1
:101A500088232CF481E090E09E838D833FC06F81CA
:101A6000788589859A8520E03FEF4FE757E40E940B
:101A7000190318164CF56B857C858D859E8520E0B5
:101A800030E040E251E40E941F02DC01CB01BC01C6
:101A9000CD010E944900DC01CB019E838D830FC0E4
:101AA00088EC90E09C838B838B819C810197F1F77C
:101AB0009C838B838D819E8101979E838D838D81F5
:101AC0009E81009769F714C06F81788589859A8512
:101AD0000E944900DC01CB019E838D838D819E8114
:101AE0009A83898389819A810197F1F79A838983FF
:101AF0000E94600C6C960FB6F894DEBF0FBECDBF8F
:101B0000CF91DF910895DF93CF93CDB7DEB72E97B6
:101B10000FB6F894DEBF0FBECDBF80E063E040E0BB
:101B20000E94180780E064E041E00E94180780E00E
:101B300090E0AAEFB4E48B879C87AD87BE876B8566
:101B40007C858D859E8520E030E04AEF54E40E943C
:101B50001F02DC01CB018F839887A987BA876F8129
:101B6000788589859A8520E030E040E85FE30E942F
:101B7000790388232CF481E090E09E838D833FC01D
:101B80006F81788589859A8520E03FEF4FE757E49C
:101B90000E94190318164CF56B857C858D859E85F2
:101BA00020E030E040E251E40E941F02DC01CB0162
:101BB000BC01CD010E944900DC01CB019E838D83D5
:101BC0000FC088EC90E09C838B838B819C81019774
:101BD000F1F79C838B838D819E8101979E838D83FA
:101BE0008D819E81009769F714C06F817885898502
:101BF0009A850E944900DC01CB019E838D838D81F3
:101C00009E819A83898389819A810197F1F79A83CA
:101C100089830E94600C80E067E040E00E94180722
:101C20002E960FB6F894DEBF0FBECDBFCF91DF91D9
:101C30000895DF93CF93CDB7DEB7ED970FB6F89445
:101C4000DEBF0FBECDBF0E94640A0E94910B19AA8D
:101C5000CE01C6969AAF89AFE6ECF0E0FCAFEBAFF1
:101C6000F3E0FDAFEBADFCAD00808BAD9CAD01961C
:101C70009CAF8BAFE9ADFAAD008289AD9AAD01960C
:101C80009AAF89AF9DAD91509DAFEDADEE2351F769
:101C900018AA80E063E041E00E94350680E064E03D
:101CA00041E00E94350680E065E041E00E94350693
:101CB00080E067E041E00E94350683E060E040E0BC
:101CC0000E9435061FA61EA61DA683E060E00E94A6
:101CD000A508882331F40E94BC091FA61EA61DA6D4
:101CE000F4CF80E060E00E94050B80E690E00E9467
:101CF000260B0E94DE0B8AAB8AA98F3FD1F38EA5FB
:101D00008F5F8EA78FA5282F30E0CE01C396FC01F0
:101D1000E20FF31F8AA980838FA5982F9D5F81E032
:101D2000692F0E94050B8AA9805D0E94C6098FA5B4
:101D30008F5F8FA78EA5833009F0C2C081E089AB89
:101D40001CA61BA618C02BA53CA5CE01C396FC0162
:101D5000E20FF31F40812BA53CA5CE01C696FC01E6
:101D6000E20FF31F8081481709F019AA8BA59CA5E3
:101D700001969CA78BA78BA59CA5833091051CF38E
:101D800089A98130D1F40E94BC0982E790E00E94C9
:101D9000260B81E060E00E94050B8FE790E00E9437
:101DA000260B1DA60E94710C83E060E00E94A5082E
:101DB0008130D1F30E94830D83C08DA58F5F8DA7E5
:101DC0000E94BC0980E060E00E94050B8CE890E076
:101DD0000E94260B1FA61EA680E090E0AAE7B4E4AE
:101DE0008FA398A7A9A7BAA76FA178A589A59AA537
:101DF00020E030E04AEF54E40E941F02DC01CB01F6
:101E00008BA39CA3ADA3BEA36BA17CA18DA19EA11E
:101E100020E030E040E85FE30E94790388232CF45F
:101E200081E090E09AA389A33FC06BA17CA18DA122
:101E30009EA120E03FEF4FE757E40E9419031816D8
:101E40004CF56FA178A589A59AA520E030E040E285
:101E500051E40E941F02DC01CB01BC01CD010E94B4
:101E60004900DC01CB019AA389A30FC088EC90E064
:101E700098A38F8F8F8D98A10197F1F798A38F8FDB
:101E800089A19AA101979AA389A389A19AA10097F0
:101E900069F714C06BA17CA18DA19EA10E9449008D
:101EA000DC01CB019AA389A389A19AA19E8F8D8F72
:101EB0008D8D9E8D0197F1F79E8F8D8F0E94BC09AD
:101EC0008DA5823009F001CF0E94BC0980E060E05E
:101ED0000E94050B8DE990E00E94260B80E065E0F2
:101EE00041E00E94180780E090E0A8ECB2E4898FFE
:101EF0009A8FAB8FBC8F698D7A8D8B8D9C8D20E0F6
:101F000030E04AEF54E40E941F02DC01CB018D8BCC
:101F10009E8BAF8BB88F6D897E898F89988D20E0DD
:101F200030E040E85FE30E94790388232CF481E0ED
:101F300090E09C8B8B8B3FC06D897E898F89988DBB
:101F400020E03FEF4FE757E40E94190318164CF5C5
:101F5000698D7A8D8B8D9C8D20E030E040E251E4DC
:101F60000E941F02DC01CB01BC01CD010E9449008F
:101F7000DC01CB019C8B8B8B0FC088EC90E09A8BA3
:101F8000898B89899A890197F1F79A8B898B8B893B
:101F90009C8901979C8B8B8B8B899C89009769F717
:101FA00014C06D897E898F89988D0E944900DC015B
:101FB000CB019C8B8B8B8B899C89988B8F878F8592
:101FC00098890197F1F7988B8F8780E065E040E072
:101FD0000E94180780E090E0A8ECB2E48B879C8711
:101FE000AD87BE876B857C858D859E8520E030E042
:101FF0004AEF54E40E941F02DC01CB018F839887D3
:10200000A987BA876F81788589859A8520E030E035
:1020100040E85FE30E94790388232CF481E090E09C
:102020009E838D833FC06F81788589859A8520E066
:102030003FEF4FE757E40E94190318164CF56B85E4
:102040007C858D859E8520E030E040E251E40E9451
:102050001F02DC01CB01BC01CD010E944900DC0163
:10206000CB019E838D830FC088EC90E09C838B8393
:102070008B819C810197F1F79C838B838D819E815D
:1020800001979E838D838D819E81009769F726CF6E
:102090006F81788589859A850E944900DC01CB0192
:1020A0009E838D838D819E819A83898389819A8184
:1020B0000197F1F79A83898311CF2F923F924F9224
:1020C0005F926F927F928F929F92AF92BF92CF92C8
:1020D000DF92EF92FF920F931F93CF93DF93CDB7D1
:1020E000DEB7CA1BDB0B0FB6F894DEBF0FBECDBF49
:1020F00009942A88398848885F846E847D848C841A
:102100009B84AA84B984C884DF80EE80FD800C8122
:102110001B81AA81B981CE0FD11D0FB6F894DEBF05
:0C2120000FBECDBFED010895F894FFCF75
:10212C00656E746572207061737320636F64653AB9
:10213C00200057656C636F6D6520486F6D650044BA
:10214C006F6F72204973204F70656E0057726F6EFF
:10215C0067207061737320636F646520004C4F437C
:10216C004B494E4720444F4F5221000000000000C5
:10217C000000000001020304050601020304050629
:0A218C000708090A000B040506000D
:00000001FF
